{
  "abi": [
    {
      "inputs": [],
      "name": "getName",
      "outputs": [
        {
          "internalType": "string",
          "name": "",
          "type": "string"
        }
      ],
      "stateMutability": "pure",
      "type": "function"
    }
  ],
  "bytecode": {
    "object": "0x608060405234801561001057600080fd5b5060e98061001f6000396000f3fe6080604052348015600f57600080fd5b506004361060285760003560e01c806317d7de7c14602d575b600080fd5b604080518082018252601181527019da585ad85848185cdcda59db9b595b9d607a1b60208201529051605e91906067565b60405180910390f35b600060208083528351808285015260005b818110156092578581018301518582016040015282016078565b506000604082860101526040601f19601f830116850101925050509291505056fea2646970667358221220e3e78464111932233a693cef3f767c7d37e23413155f83dae0677f46cf14392064736f6c63430008140033",
    "linkReferences": {}
  },
  "methodIdentifiers": {
    "getName()": "17d7de7c"
  },
  "id": 0
}